{
  "_format": "hh-sol-artifact-1",
  "contractName": "AllowlisterFactory",
  "sourceName": "contracts/AllowlisterFactory.sol",
  "abi": [
    {
      "inputs": [
        {
          "internalType": "address",
          "name": "lensHub_",
          "type": "address"
        },
        {
          "internalType": "address",
          "name": "randomiser_",
          "type": "address"
        }
      ],
      "stateMutability": "nonpayable",
      "type": "constructor"
    },
    {
      "anonymous": false,
      "inputs": [
        {
          "indexed": true,
          "internalType": "address",
          "name": "previousOwner",
          "type": "address"
        },
        {
          "indexed": true,
          "internalType": "address",
          "name": "newOwner",
          "type": "address"
        }
      ],
      "name": "OwnershipTransferred",
      "type": "event"
    },
    {
      "inputs": [
        {
          "internalType": "string",
          "name": "projectLensHandle",
          "type": "string"
        },
        {
          "internalType": "string",
          "name": "raffleDisplayName",
          "type": "string"
        },
        {
          "internalType": "uint256",
          "name": "winnersToDraw",
          "type": "uint256"
        },
        {
          "internalType": "address",
          "name": "winnersModule",
          "type": "address"
        },
        {
          "internalType": "address",
          "name": "validateModule",
          "type": "address"
        }
      ],
      "name": "createRaffle",
      "outputs": [
        {
          "internalType": "address",
          "name": "",
          "type": "address"
        },
        {
          "internalType": "uint256",
          "name": "",
          "type": "uint256"
        }
      ],
      "stateMutability": "nonpayable",
      "type": "function"
    },
    {
      "inputs": [],
      "name": "lensHub",
      "outputs": [
        {
          "internalType": "address",
          "name": "",
          "type": "address"
        }
      ],
      "stateMutability": "view",
      "type": "function"
    },
    {
      "inputs": [],
      "name": "owner",
      "outputs": [
        {
          "internalType": "address",
          "name": "",
          "type": "address"
        }
      ],
      "stateMutability": "view",
      "type": "function"
    },
    {
      "inputs": [
        {
          "internalType": "uint256",
          "name": "",
          "type": "uint256"
        }
      ],
      "name": "raffles",
      "outputs": [
        {
          "internalType": "contract Allowlister",
          "name": "",
          "type": "address"
        }
      ],
      "stateMutability": "view",
      "type": "function"
    },
    {
      "inputs": [],
      "name": "randomiser",
      "outputs": [
        {
          "internalType": "address",
          "name": "",
          "type": "address"
        }
      ],
      "stateMutability": "view",
      "type": "function"
    },
    {
      "inputs": [],
      "name": "renounceOwnership",
      "outputs": [],
      "stateMutability": "nonpayable",
      "type": "function"
    },
    {
      "inputs": [],
      "name": "s_raffleId",
      "outputs": [
        {
          "internalType": "uint256",
          "name": "",
          "type": "uint256"
        }
      ],
      "stateMutability": "view",
      "type": "function"
    },
    {
      "inputs": [
        {
          "internalType": "address",
          "name": "newOwner",
          "type": "address"
        }
      ],
      "name": "transferOwnership",
      "outputs": [],
      "stateMutability": "nonpayable",
      "type": "function"
    }
  ],
  "bytecode": "0x60c0604052600060015534801561001557600080fd5b50604051612216380380612216833981016040819052610034916100c0565b61003d33610054565b6001600160a01b039182166080521660a0526100f3565b600080546001600160a01b038381166001600160a01b0319831681178455604051919092169283917f8be0079c531659141344cd1fd0a4f28419497f9722a3daafe3b4186f6b6457e09190a35050565b80516001600160a01b03811681146100bb57600080fd5b919050565b600080604083850312156100d357600080fd5b6100dc836100a4565b91506100ea602084016100a4565b90509250929050565b60805160a0516120f16101256000396000818160d901526101fd01526000818161017d01526101d901526120f16000f3fe60806040523480156200001157600080fd5b5060043610620000935760003560e01c80638da5cb5b11620000625780638da5cb5b146200014c578063a87a2ca9146200015e578063b02cfdc31462000177578063f2fde38b146200019f57600080fd5b80632133cde81462000098578063336f528a14620000d35780635d4bc0ce1462000114578063715018a61462000140575b600080fd5b620000af620000a9366004620004cd565b620001b6565b604080516001600160a01b0390931683526020830191909152015b60405180910390f35b620000fb7f000000000000000000000000000000000000000000000000000000000000000081565b6040516001600160a01b039091168152602001620000ca565b620000fb6200012536600462000572565b6002602052600090815260409020546001600160a01b031681565b6200014a620002a3565b005b6000546001600160a01b0316620000fb565b6200016860015481565b604051908152602001620000ca565b620000fb7f000000000000000000000000000000000000000000000000000000000000000081565b6200014a620001b03660046200058c565b62000311565b600180546000918291829182620001cd83620005b1565b919050559050600088887f00000000000000000000000000000000000000000000000000000000000000008d8d8b7f00000000000000000000000000000000000000000000000000000000000000008c8c6040516200022c9062000456565b62000240999897969594939291906200061d565b604051809103906000f0801580156200025d573d6000803e3d6000fd5b506000838152600260205260409020805473ffffffffffffffffffffffffffffffffffffffff19166001600160a01b0383161790559b919a509098505050505050505050565b6000546001600160a01b03163314620003035760405162461bcd60e51b815260206004820181905260248201527f4f776e61626c653a2063616c6c6572206973206e6f7420746865206f776e657260448201526064015b60405180910390fd5b6200030f6000620003f9565b565b6000546001600160a01b031633146200036d5760405162461bcd60e51b815260206004820181905260248201527f4f776e61626c653a2063616c6c6572206973206e6f7420746865206f776e65726044820152606401620002fa565b6001600160a01b038116620003eb5760405162461bcd60e51b815260206004820152602660248201527f4f776e61626c653a206e6577206f776e657220697320746865207a65726f206160448201527f64647265737300000000000000000000000000000000000000000000000000006064820152608401620002fa565b620003f681620003f9565b50565b600080546001600160a01b0383811673ffffffffffffffffffffffffffffffffffffffff19831681178455604051919092169283917f8be0079c531659141344cd1fd0a4f28419497f9722a3daafe3b4186f6b6457e09190a35050565b611a37806200068583390190565b60008083601f8401126200047757600080fd5b50813567ffffffffffffffff8111156200049057600080fd5b602083019150836020828501011115620004a957600080fd5b9250929050565b80356001600160a01b0381168114620004c857600080fd5b919050565b600080600080600080600060a0888a031215620004e957600080fd5b873567ffffffffffffffff808211156200050257600080fd5b620005108b838c0162000464565b909950975060208a01359150808211156200052a57600080fd5b50620005398a828b0162000464565b909650945050604088013592506200055460608901620004b0565b91506200056460808901620004b0565b905092959891949750929550565b6000602082840312156200058557600080fd5b5035919050565b6000602082840312156200059f57600080fd5b620005aa82620004b0565b9392505050565b6000600019821415620005ed577f4e487b7100000000000000000000000000000000000000000000000000000000600052601160045260246000fd5b5060010190565b81835281816020850137506000828201602090810191909152601f909101601f19169091010190565b60e0815260006200063360e083018b8d620005f4565b6001600160a01b03808b166020850152838203604085015262000658828a8c620005f4565b60608501989098529586166080840152505091831660a083015290911660c0909101529594505050505056fe6101406040526008805460ff191690553480156200001c57600080fd5b5060405162001a3738038062001a378339810160408190526200003f91620002ef565b6200004a3362000102565b86516200005f9060019060208a019062000152565b506001600160a01b038616608081905260405163107d394560e11b81526320fa728a9062000092908890600401620003ad565b602060405180830381865afa158015620000b0573d6000803e3d6000fd5b505050506040513d601f19601f82011682018060405250810190620000d69190620003e2565b60c05260e0939093526001600160a01b0391821660a05281166101005216610120525062000439915050565b600080546001600160a01b038381166001600160a01b0319831681178455604051919092169283917f8be0079c531659141344cd1fd0a4f28419497f9722a3daafe3b4186f6b6457e09190a35050565b8280546200016090620003fc565b90600052602060002090601f016020900481019282620001845760008555620001cf565b82601f106200019f57805160ff1916838001178555620001cf565b82800160010185558215620001cf579182015b82811115620001cf578251825591602001919060010190620001b2565b50620001dd929150620001e1565b5090565b5b80821115620001dd5760008155600101620001e2565b634e487b7160e01b600052604160045260246000fd5b60005b838110156200022b57818101518382015260200162000211565b838111156200023b576000848401525b50505050565b600082601f8301126200025357600080fd5b81516001600160401b0380821115620002705762000270620001f8565b604051601f8301601f19908116603f011681019082821181831017156200029b576200029b620001f8565b81604052838152866020858801011115620002b557600080fd5b620002c88460208301602089016200020e565b9695505050505050565b80516001600160a01b0381168114620002ea57600080fd5b919050565b600080600080600080600060e0888a0312156200030b57600080fd5b87516001600160401b03808211156200032357600080fd5b620003318b838c0162000241565b98506200034160208b01620002d2565b975060408a01519150808211156200035857600080fd5b50620003678a828b0162000241565b955050606088015193506200037f60808901620002d2565b92506200038f60a08901620002d2565b91506200039f60c08901620002d2565b905092959891949750929550565b6020815260008251806020840152620003ce8160408501602087016200020e565b601f01601f19169190910160400192915050565b600060208284031215620003f557600080fd5b5051919050565b600181811c908216806200041157607f821691505b602082108114156200043357634e487b7160e01b600052602260045260246000fd5b50919050565b60805160a05160c05160e051610100516101205161155a620004dd600039600081816101ff01526106190152600081816102cd015281816109ea0152610bf701526000818161027a015281816108bd0152818161092f01528181610a1b0152610a4901526000818161037401526107aa01526000818161019e015281816103c50152610f1c01526000818161034d015281816104bd01526107d3015261155a6000f3fe608060405234801561001057600080fd5b50600436106101775760003560e01c8063756cd579116100d8578063af5d48d31161008c578063dbdff2c111610066578063dbdff2c114610396578063e492d5611461039e578063f2fde38b146103a757600080fd5b8063af5d48d31461033b578063b02cfdc314610348578063c155dd831461036f57600080fd5b80639a6809c6116100bd5780639a6809c6146102c85780639d5b24c0146102ef5780639e4963d11461031857600080fd5b8063756cd579146102a45780638da5cb5b146102b757600080fd5b80635646d42a1161012f578063652f89e511610114578063652f89e51461024257806367879b7514610275578063715018a61461029c57600080fd5b80635646d42a146101fa5780635bc6a61a1461022157600080fd5b8063336f528a11610160578063336f528a1461019957806333c1420a146101dd5780634affb260146101e557600080fd5b806313cf90541461017c5780631aa3a00814610191575b600080fd5b61018f61018a3660046111c1565b6103ba565b005b61018f61048c565b6101c07f000000000000000000000000000000000000000000000000000000000000000081565b6040516001600160a01b0390911681526020015b60405180910390f35b61018f61072f565b6101ed610d05565b6040516101d4919061120a565b6101c07f000000000000000000000000000000000000000000000000000000000000000081565b61023461022f3660046111c1565b610d93565b6040519081526020016101d4565b6102656102503660046111c1565b60046020526000908152604090205460ff1681565b60405190151581526020016101d4565b6102347f000000000000000000000000000000000000000000000000000000000000000081565b61018f610db4565b6101c06102b23660046111c1565b610e1a565b6000546001600160a01b03166101c0565b6101c07f000000000000000000000000000000000000000000000000000000000000000081565b6101c06102fd3660046111c1565b6003602052600090815260409020546001600160a01b031681565b610265610326366004611252565b60056020526000908152604090205460ff1681565b6008546102659060ff1681565b6101c07f000000000000000000000000000000000000000000000000000000000000000081565b6102347f000000000000000000000000000000000000000000000000000000000000000081565b61018f610e44565b61023460075481565b61018f6103b5366004611252565b610f94565b336001600160a01b037f000000000000000000000000000000000000000000000000000000000000000016146104375760405162461bcd60e51b815260206004820152601860248201527f4f6e6c792072616e646f6d69736572206d61792063616c6c000000000000000060448201526064015b60405180910390fd5b600754156104875760405162461bcd60e51b815260206004820152601f60248201527f52616e646f6d6e6573732068617320616c7265616479206265656e2073657400604482015260640161042e565b600755565b6040517f92254a620000000000000000000000000000000000000000000000000000000081523360048201526000907f00000000000000000000000000000000000000000000000000000000000000006001600160a01b0316906392254a6290602401602060405180830381865afa15801561050c573d6000803e3d6000fd5b505050506040513d601f19601f820116820180604052508101906105309190611276565b60008181526004602052604090205490915060ff1615801561056257503360009081526005602052604090205460ff16155b6105ae5760405162461bcd60e51b815260206004820152601d60248201527f416c7265616479207265676973746572656420666f7220726166666c65000000604482015260640161042e565b60008181526004602081815260408084208054600160ff1991821681179092553386526005909352938190208054909216909317905590517fce4d01a30000000000000000000000000000000000000000000000000000000081529081018290526001600160a01b037f0000000000000000000000000000000000000000000000000000000000000000169063ce4d01a3906024016020604051808303816000875af1158015610662573d6000803e3d6000fd5b505050506040513d601f19601f82011682018060405250810190610686919061128f565b6106d25760405162461bcd60e51b815260206004820152601960248201527f50726f66696c652076616c69646174696f6e206661696c656400000000000000604482015260640161042e565b60028054600181019091557f405787fa12a823e0f2b7631cc41b3ba8828b3321ca811111fa75cd3aa3bb5ace018190556000908152600360205260409020805473ffffffffffffffffffffffffffffffffffffffff191633179055565b60085460ff16156107825760405162461bcd60e51b815260206004820152601760248201527f526166666c6520616c72656164792066696e6973686564000000000000000000604482015260640161042e565b6040517ff08f4f640000000000000000000000000000000000000000000000000000000081527f000000000000000000000000000000000000000000000000000000000000000060048201526000907f00000000000000000000000000000000000000000000000000000000000000006001600160a01b03169063f08f4f6490602401600060405180830381865afa158015610822573d6000803e3d6000fd5b505050506040513d6000823e601f3d908101601f1916820160405261084a9190810190611388565b90506000816040015190506000816001600160a01b03166318160ddd6040518163ffffffff1660e01b8152600401602060405180830381865afa158015610895573d6000803e3d6000fd5b505050506040513d601f19601f820116820180604052508101906108b99190611276565b90507f000000000000000000000000000000000000000000000000000000000000000081101561092b5760405162461bcd60e51b815260206004820152601c60248201527f4e6f7420656e6f75676820737570706c7920666f7220726166666c6500000000604482015260640161042e565b60007f000000000000000000000000000000000000000000000000000000000000000067ffffffffffffffff811115610966576109666112b1565b60405190808252806020026020018201604052801561098f578160200160208202803683370190505b50905060008060028054806020026020016040519081016040528092919081815260200182805480156109e157602002820191906000526020600020905b8154815260200190600101908083116109cd575b509394505050507f00000000000000000000000000000000000000000000000000000000000000006001600160a01b03161515905060005b7f0000000000000000000000000000000000000000000000000000000000000000811015610cda576000610a6d827f000000000000000000000000000000000000000000000000000000000000000061147f565b610a75611073565b610a7f9190611496565b9050600060028281548110610a9657610a966114b8565b9060005260206000200154905080878780610ab0906114ce565b985081518110610ac257610ac26114b8565b60209081029190910181019190915260008281526003909152604080822054600680546001810182559084527ff652222313e28459528d920b65115c16c04f3efc82aaedc97be59f3f377c0d3f01805473ffffffffffffffffffffffffffffffffffffffff19166001600160a01b0390921691821790559051909183917fd077b95179d4ec05dad2d0b0c388ae0571bc74266bbadf496608af15775e82419190a28415610c54576001600160a01b038116610bbf5760405162461bcd60e51b815260206004820152601460248201527f4d696e7420746f207a65726f2061646472657373000000000000000000000000604482015260640161042e565b6040517ffbdd25e40000000000000000000000000000000000000000000000000000000081526001600160a01b0382811660048301527f0000000000000000000000000000000000000000000000000000000000000000169063fbdd25e490602401600060405180830381600087803b158015610c3b57600080fd5b505af1158015610c4f573d6000803e3d6000fd5b505050505b8560018751610c63919061147f565b81518110610c7357610c736114b8565b6020026020010151868481518110610c8d57610c8d6114b8565b6020026020010181815250508560018751610ca8919061147f565b81518110610cb857610cb86114b8565b6020026020010160008152505050508080610cd2906114ce565b915050610a19565b508151610cee906002906020850190611161565b50506008805460ff19166001179055505050505050565b60018054610d12906114e9565b80601f0160208091040260200160405190810160405280929190818152602001828054610d3e906114e9565b8015610d8b5780601f10610d6057610100808354040283529160200191610d8b565b820191906000526020600020905b815481529060010190602001808311610d6e57829003601f168201915b505050505081565b60028181548110610da357600080fd5b600091825260209091200154905081565b6000546001600160a01b03163314610e0e5760405162461bcd60e51b815260206004820181905260248201527f4f776e61626c653a2063616c6c6572206973206e6f7420746865206f776e6572604482015260640161042e565b610e186000611104565b565b60068181548110610e2a57600080fd5b6000918252602090912001546001600160a01b0316905081565b6000546001600160a01b03163314610e9e5760405162461bcd60e51b815260206004820181905260248201527f4f776e61626c653a2063616c6c6572206973206e6f7420746865206f776e6572604482015260640161042e565b60075415610eee5760405162461bcd60e51b815260206004820152601f60248201527f52616e646f6d6e6573732068617320616c7265616479206265656e2073657400604482015260640161042e565b6040517f3b6dde130000000000000000000000000000000000000000000000000000000081523060048201527f00000000000000000000000000000000000000000000000000000000000000006001600160a01b031690633b6dde13906024016020604051808303816000875af1158015610f6d573d6000803e3d6000fd5b505050506040513d601f19601f82011682018060405250810190610f919190611276565b50565b6000546001600160a01b03163314610fee5760405162461bcd60e51b815260206004820181905260248201527f4f776e61626c653a2063616c6c6572206973206e6f7420746865206f776e6572604482015260640161042e565b6001600160a01b03811661106a5760405162461bcd60e51b815260206004820152602660248201527f4f776e61626c653a206e6577206f776e657220697320746865207a65726f206160448201527f6464726573730000000000000000000000000000000000000000000000000000606482015260840161042e565b610f9181611104565b600754600090806110c65760405162461bcd60e51b815260206004820152601c60248201527f496e697469616c6973652072616e646f6d207365656420666972737400000000604482015260640161042e565b80915080446040516020016110e5929190918252602082015260400190565b60408051601f1981840301815291905280516020909101206007555090565b600080546001600160a01b0383811673ffffffffffffffffffffffffffffffffffffffff19831681178455604051919092169283917f8be0079c531659141344cd1fd0a4f28419497f9722a3daafe3b4186f6b6457e09190a35050565b82805482825590600052602060002090810192821561119c579160200282015b8281111561119c578251825591602001919060010190611181565b506111a89291506111ac565b5090565b5b808211156111a857600081556001016111ad565b6000602082840312156111d357600080fd5b5035919050565b60005b838110156111f55781810151838201526020016111dd565b83811115611204576000848401525b50505050565b60208152600082518060208401526112298160408501602087016111da565b601f01601f19169190910160400192915050565b6001600160a01b0381168114610f9157600080fd5b60006020828403121561126457600080fd5b813561126f8161123d565b9392505050565b60006020828403121561128857600080fd5b5051919050565b6000602082840312156112a157600080fd5b8151801515811461126f57600080fd5b634e487b7160e01b600052604160045260246000fd5b60405160c0810167ffffffffffffffff811182821017156112ea576112ea6112b1565b60405290565b80516112fb8161123d565b919050565b600082601f83011261131157600080fd5b815167ffffffffffffffff8082111561132c5761132c6112b1565b604051601f8301601f19908116603f01168101908282118183101715611354576113546112b1565b8160405283815286602085880101111561136d57600080fd5b61137e8460208301602089016111da565b9695505050505050565b60006020828403121561139a57600080fd5b815167ffffffffffffffff808211156113b257600080fd5b9083019060c082860312156113c657600080fd5b6113ce6112c7565b825181526113de602084016112f0565b60208201526113ef604084016112f0565b604082015260608301518281111561140657600080fd5b61141287828601611300565b60608301525060808301518281111561142a57600080fd5b61143687828601611300565b60808301525060a08301518281111561144e57600080fd5b61145a87828601611300565b60a08301525095945050505050565b634e487b7160e01b600052601160045260246000fd5b60008282101561149157611491611469565b500390565b6000826114b357634e487b7160e01b600052601260045260246000fd5b500690565b634e487b7160e01b600052603260045260246000fd5b60006000198214156114e2576114e2611469565b5060010190565b600181811c908216806114fd57607f821691505b6020821081141561151e57634e487b7160e01b600052602260045260246000fd5b5091905056fea2646970667358221220b4719c0278c6c004cdbc839afb3b4ff90c747a865c54d60603e2410ea1b8bd9d64736f6c634300080a0033a2646970667358221220f8f52c657b2ad2656f88b8e39d5c8bba884b7033dd6d2b1a3d395167d7db9e3b64736f6c634300080a0033",
  "linkReferences": {},
  "deployedLinkReferences": {}
}