{
  "_format": "hh-sol-artifact-1",
  "contractName": "AllowlisterFactory",
  "sourceName": "contracts/AllowlisterFactory.sol",
  "abi": [
    {
      "inputs": [
        {
          "internalType": "address",
          "name": "lensHub_",
          "type": "address"
        },
        {
          "internalType": "address",
          "name": "randomiser_",
          "type": "address"
        }
      ],
      "stateMutability": "nonpayable",
      "type": "constructor"
    },
    {
      "anonymous": false,
      "inputs": [
        {
          "indexed": true,
          "internalType": "address",
          "name": "previousOwner",
          "type": "address"
        },
        {
          "indexed": true,
          "internalType": "address",
          "name": "newOwner",
          "type": "address"
        }
      ],
      "name": "OwnershipTransferred",
      "type": "event"
    },
    {
      "inputs": [
        {
          "internalType": "string",
          "name": "projectLensHandle",
          "type": "string"
        },
        {
          "internalType": "string",
          "name": "raffleDisplayName",
          "type": "string"
        },
        {
          "internalType": "uint256",
          "name": "winnersToDraw",
          "type": "uint256"
        },
        {
          "internalType": "address",
          "name": "winnersModule",
          "type": "address"
        },
        {
          "internalType": "address",
          "name": "validateModule",
          "type": "address"
        }
      ],
      "name": "createRaffle",
      "outputs": [
        {
          "internalType": "address",
          "name": "",
          "type": "address"
        },
        {
          "internalType": "uint256",
          "name": "",
          "type": "uint256"
        }
      ],
      "stateMutability": "nonpayable",
      "type": "function"
    },
    {
      "inputs": [],
      "name": "lensHub",
      "outputs": [
        {
          "internalType": "address",
          "name": "",
          "type": "address"
        }
      ],
      "stateMutability": "view",
      "type": "function"
    },
    {
      "inputs": [],
      "name": "owner",
      "outputs": [
        {
          "internalType": "address",
          "name": "",
          "type": "address"
        }
      ],
      "stateMutability": "view",
      "type": "function"
    },
    {
      "inputs": [
        {
          "internalType": "uint256",
          "name": "",
          "type": "uint256"
        }
      ],
      "name": "raffles",
      "outputs": [
        {
          "internalType": "contract Allowlister",
          "name": "",
          "type": "address"
        }
      ],
      "stateMutability": "view",
      "type": "function"
    },
    {
      "inputs": [],
      "name": "randomiser",
      "outputs": [
        {
          "internalType": "address",
          "name": "",
          "type": "address"
        }
      ],
      "stateMutability": "view",
      "type": "function"
    },
    {
      "inputs": [],
      "name": "renounceOwnership",
      "outputs": [],
      "stateMutability": "nonpayable",
      "type": "function"
    },
    {
      "inputs": [],
      "name": "s_raffleId",
      "outputs": [
        {
          "internalType": "uint256",
          "name": "",
          "type": "uint256"
        }
      ],
      "stateMutability": "view",
      "type": "function"
    },
    {
      "inputs": [
        {
          "internalType": "address",
          "name": "newOwner",
          "type": "address"
        }
      ],
      "name": "transferOwnership",
      "outputs": [],
      "stateMutability": "nonpayable",
      "type": "function"
    }
  ],
  "bytecode": "0x60c060405260006001553480156200001657600080fd5b506040516200387c3803806200387c83398181016040528101906200003c919062000202565b6200005c62000050620000cc60201b60201c565b620000d460201b60201c565b8173ffffffffffffffffffffffffffffffffffffffff1660808173ffffffffffffffffffffffffffffffffffffffff16815250508073ffffffffffffffffffffffffffffffffffffffff1660a08173ffffffffffffffffffffffffffffffffffffffff1681525050505062000249565b600033905090565b60008060009054906101000a900473ffffffffffffffffffffffffffffffffffffffff169050816000806101000a81548173ffffffffffffffffffffffffffffffffffffffff021916908373ffffffffffffffffffffffffffffffffffffffff1602179055508173ffffffffffffffffffffffffffffffffffffffff168173ffffffffffffffffffffffffffffffffffffffff167f8be0079c531659141344cd1fd0a4f28419497f9722a3daafe3b4186f6b6457e060405160405180910390a35050565b600080fd5b600073ffffffffffffffffffffffffffffffffffffffff82169050919050565b6000620001ca826200019d565b9050919050565b620001dc81620001bd565b8114620001e857600080fd5b50565b600081519050620001fc81620001d1565b92915050565b600080604083850312156200021c576200021b62000198565b5b60006200022c85828601620001eb565b92505060206200023f85828601620001eb565b9150509250929050565b60805160a0516135ff6200027d6000396000818161020401526102d60152600081816101e001526103ed01526135ff6000f3fe60806040523480156200001157600080fd5b5060043610620000945760003560e01c80638da5cb5b11620000635780638da5cb5b1462000134578063a87a2ca91462000156578063b02cfdc31462000178578063f2fde38b146200019a5762000094565b80632133cde81462000099578063336f528a14620000d05780635d4bc0ce14620000f2578063715018a61462000128575b600080fd5b620000b76004803603810190620000b1919062000705565b620001ba565b604051620000c7929190620007f6565b60405180910390f35b620000da620002d4565b604051620000e9919062000823565b60405180910390f35b6200011060048036038101906200010a919062000840565b620002f8565b6040516200011f9190620008dd565b60405180910390f35b620001326200032b565b005b6200013e620003bc565b6040516200014d919062000823565b60405180910390f35b62000160620003e5565b6040516200016f9190620008fa565b60405180910390f35b62000182620003eb565b60405162000191919062000823565b60405180910390f35b620001b86004803603810190620001b2919062000917565b6200040f565b005b600080600060016000815480929190620001d49062000978565b919050559050600088887f00000000000000000000000000000000000000000000000000000000000000008d8d8b7f00000000000000000000000000000000000000000000000000000000000000008c8c6040516200023390620005df565b620002479998979695949392919062000a2a565b604051809103906000f08015801562000264573d6000803e3d6000fd5b509050806002600084815260200190815260200160002060006101000a81548173ffffffffffffffffffffffffffffffffffffffff021916908373ffffffffffffffffffffffffffffffffffffffff16021790555081600181905550808293509350505097509795505050505050565b7f000000000000000000000000000000000000000000000000000000000000000081565b60026020528060005260406000206000915054906101000a900473ffffffffffffffffffffffffffffffffffffffff1681565b6200033562000513565b73ffffffffffffffffffffffffffffffffffffffff1662000355620003bc565b73ffffffffffffffffffffffffffffffffffffffff1614620003ae576040517f08c379a0000000000000000000000000000000000000000000000000000000008152600401620003a59062000b09565b60405180910390fd5b620003ba60006200051b565b565b60008060009054906101000a900473ffffffffffffffffffffffffffffffffffffffff16905090565b60015481565b7f000000000000000000000000000000000000000000000000000000000000000081565b6200041962000513565b73ffffffffffffffffffffffffffffffffffffffff1662000439620003bc565b73ffffffffffffffffffffffffffffffffffffffff161462000492576040517f08c379a0000000000000000000000000000000000000000000000000000000008152600401620004899062000b09565b60405180910390fd5b600073ffffffffffffffffffffffffffffffffffffffff168173ffffffffffffffffffffffffffffffffffffffff16141562000505576040517f08c379a0000000000000000000000000000000000000000000000000000000008152600401620004fc9062000ba1565b60405180910390fd5b62000510816200051b565b50565b600033905090565b60008060009054906101000a900473ffffffffffffffffffffffffffffffffffffffff169050816000806101000a81548173ffffffffffffffffffffffffffffffffffffffff021916908373ffffffffffffffffffffffffffffffffffffffff1602179055508173ffffffffffffffffffffffffffffffffffffffff168173ffffffffffffffffffffffffffffffffffffffff167f8be0079c531659141344cd1fd0a4f28419497f9722a3daafe3b4186f6b6457e060405160405180910390a35050565b612a068062000bc483390190565b600080fd5b600080fd5b600080fd5b600080fd5b600080fd5b60008083601f8401126200061f576200061e620005f7565b5b8235905067ffffffffffffffff8111156200063f576200063e620005fc565b5b6020830191508360018202830111156200065e576200065d62000601565b5b9250929050565b6000819050919050565b6200067a8162000665565b81146200068657600080fd5b50565b6000813590506200069a816200066f565b92915050565b600073ffffffffffffffffffffffffffffffffffffffff82169050919050565b6000620006cd82620006a0565b9050919050565b620006df81620006c0565b8114620006eb57600080fd5b50565b600081359050620006ff81620006d4565b92915050565b600080600080600080600060a0888a031215620007275762000726620005ed565b5b600088013567ffffffffffffffff811115620007485762000747620005f2565b5b620007568a828b0162000606565b9750975050602088013567ffffffffffffffff8111156200077c576200077b620005f2565b5b6200078a8a828b0162000606565b955095505060406200079f8a828b0162000689565b9350506060620007b28a828b01620006ee565b9250506080620007c58a828b01620006ee565b91505092959891949750929550565b620007df81620006c0565b82525050565b620007f08162000665565b82525050565b60006040820190506200080d6000830185620007d4565b6200081c6020830184620007e5565b9392505050565b60006020820190506200083a6000830184620007d4565b92915050565b600060208284031215620008595762000858620005ed565b5b6000620008698482850162000689565b91505092915050565b6000819050919050565b60006200089d620008976200089184620006a0565b62000872565b620006a0565b9050919050565b6000620008b1826200087c565b9050919050565b6000620008c582620008a4565b9050919050565b620008d781620008b8565b82525050565b6000602082019050620008f46000830184620008cc565b92915050565b6000602082019050620009116000830184620007e5565b92915050565b60006020828403121562000930576200092f620005ed565b5b60006200094084828501620006ee565b91505092915050565b7f4e487b7100000000000000000000000000000000000000000000000000000000600052601160045260246000fd5b6000620009858262000665565b91507fffffffffffffffffffffffffffffffffffffffffffffffffffffffffffffffff821415620009bb57620009ba62000949565b5b600182019050919050565b600082825260208201905092915050565b82818337600083830152505050565b6000601f19601f8301169050919050565b600062000a058385620009c6565b935062000a14838584620009d7565b62000a1f83620009e6565b840190509392505050565b600060e082019050818103600083015262000a47818b8d620009f7565b905062000a58602083018a620007d4565b818103604083015262000a6d81888a620009f7565b905062000a7e6060830187620007e5565b62000a8d6080830186620007d4565b62000a9c60a0830185620007d4565b62000aab60c0830184620007d4565b9a9950505050505050505050565b7f4f776e61626c653a2063616c6c6572206973206e6f7420746865206f776e6572600082015250565b600062000af1602083620009c6565b915062000afe8262000ab9565b602082019050919050565b6000602082019050818103600083015262000b248162000ae2565b9050919050565b7f4f776e61626c653a206e6577206f776e657220697320746865207a65726f206160008201527f6464726573730000000000000000000000000000000000000000000000000000602082015250565b600062000b89602683620009c6565b915062000b968262000b2b565b604082019050919050565b6000602082019050818103600083015262000bbc8162000b7a565b905091905056fe6101406040526000600760006101000a81548160ff0219169083151502179055503480156200002d57600080fd5b5060405162002a0638038062002a068339818101604052810190620000539190620005b4565b6200007362000067620001fb60201b60201c565b6200020360201b60201c565b86600190805190602001906200008b929190620002c7565b508573ffffffffffffffffffffffffffffffffffffffff1660808173ffffffffffffffffffffffffffffffffffffffff168152505060805173ffffffffffffffffffffffffffffffffffffffff166320fa728a866040518263ffffffff1660e01b8152600401620000fd919062000702565b602060405180830381865afa1580156200011b573d6000803e3d6000fd5b505050506040513d601f19601f8201168201806040525081019062000141919062000726565b60c081815250508360e081815250508273ffffffffffffffffffffffffffffffffffffffff1660a08173ffffffffffffffffffffffffffffffffffffffff16815250508173ffffffffffffffffffffffffffffffffffffffff166101008173ffffffffffffffffffffffffffffffffffffffff16815250508073ffffffffffffffffffffffffffffffffffffffff166101208173ffffffffffffffffffffffffffffffffffffffff168152505050505050505050620007bd565b600033905090565b60008060009054906101000a900473ffffffffffffffffffffffffffffffffffffffff169050816000806101000a81548173ffffffffffffffffffffffffffffffffffffffff021916908373ffffffffffffffffffffffffffffffffffffffff1602179055508173ffffffffffffffffffffffffffffffffffffffff168173ffffffffffffffffffffffffffffffffffffffff167f8be0079c531659141344cd1fd0a4f28419497f9722a3daafe3b4186f6b6457e060405160405180910390a35050565b828054620002d59062000787565b90600052602060002090601f016020900481019282620002f9576000855562000345565b82601f106200031457805160ff191683800117855562000345565b8280016001018555821562000345579182015b828111156200034457825182559160200191906001019062000327565b5b50905062000354919062000358565b5090565b5b808211156200037357600081600090555060010162000359565b5090565b6000604051905090565b600080fd5b600080fd5b600080fd5b600080fd5b6000601f19601f8301169050919050565b7f4e487b7100000000000000000000000000000000000000000000000000000000600052604160045260246000fd5b620003e08262000395565b810181811067ffffffffffffffff82111715620004025762000401620003a6565b5b80604052505050565b60006200041762000377565b9050620004258282620003d5565b919050565b600067ffffffffffffffff821115620004485762000447620003a6565b5b620004538262000395565b9050602081019050919050565b60005b838110156200048057808201518184015260208101905062000463565b8381111562000490576000848401525b50505050565b6000620004ad620004a7846200042a565b6200040b565b905082815260208101848484011115620004cc57620004cb62000390565b5b620004d984828562000460565b509392505050565b600082601f830112620004f957620004f86200038b565b5b81516200050b84826020860162000496565b91505092915050565b600073ffffffffffffffffffffffffffffffffffffffff82169050919050565b6000620005418262000514565b9050919050565b620005538162000534565b81146200055f57600080fd5b50565b600081519050620005738162000548565b92915050565b6000819050919050565b6200058e8162000579565b81146200059a57600080fd5b50565b600081519050620005ae8162000583565b92915050565b600080600080600080600060e0888a031215620005d657620005d562000381565b5b600088015167ffffffffffffffff811115620005f757620005f662000386565b5b620006058a828b01620004e1565b9750506020620006188a828b0162000562565b965050604088015167ffffffffffffffff8111156200063c576200063b62000386565b5b6200064a8a828b01620004e1565b95505060606200065d8a828b016200059d565b9450506080620006708a828b0162000562565b93505060a0620006838a828b0162000562565b92505060c0620006968a828b0162000562565b91505092959891949750929550565b600081519050919050565b600082825260208201905092915050565b6000620006ce82620006a5565b620006da8185620006b0565b9350620006ec81856020860162000460565b620006f78162000395565b840191505092915050565b600060208201905081810360008301526200071e8184620006c1565b905092915050565b6000602082840312156200073f576200073e62000381565b5b60006200074f848285016200059d565b91505092915050565b7f4e487b7100000000000000000000000000000000000000000000000000000000600052602260045260246000fd5b60006002820490506001821680620007a057607f821691505b60208210811415620007b757620007b662000758565b5b50919050565b60805160a05160c05160e05161010051610120516121a562000861600039600081816106350152610e31015260008181610a8001528181610c520152610f6e015260008181610941015281816109a601528181610abe01528181610ae90152610e99015260008181610840015261101c01526000818161037f0152818161078e015261110101526000818161045e015281816108040152610ff801526121a56000f3fe608060405234801561001057600080fd5b506004361061012c5760003560e01c80638da5cb5b116100ad578063b02cfdc311610071578063b02cfdc3146102fd578063c155dd831461031b578063dbdff2c114610339578063e492d56114610343578063f2fde38b146103615761012c565b80638da5cb5b146102435780639a6809c6146102615780639d5b24c01461027f5780639e4963d1146102af578063af5d48d3146102df5761012c565b80635646d42a116100f45780635646d42a1461019d5780635bc6a61a146101bb578063652f89e5146101eb57806367879b751461021b578063715018a6146102395761012c565b806313cf9054146101315780631aa3a0081461014d578063336f528a1461015757806333c1420a146101755780634affb2601461017f575b600080fd5b61014b600480360381019061014691906114a1565b61037d565b005b61015561045a565b005b61015f61078c565b60405161016c919061154d565b60405180910390f35b61017d6107b0565b005b610187610da1565b6040516101949190611601565b60405180910390f35b6101a5610e2f565b6040516101b29190611644565b60405180910390f35b6101d560048036038101906101d091906114a1565b610e53565b6040516101e2919061166e565b60405180910390f35b610205600480360381019061020091906114a1565b610e77565b60405161021291906116a4565b60405180910390f35b610223610e97565b604051610230919061166e565b60405180910390f35b610241610ebb565b005b61024b610f43565b60405161025891906116e0565b60405180910390f35b610269610f6c565b604051610276919061171c565b60405180910390f35b610299600480360381019061029491906114a1565b610f90565b6040516102a691906116e0565b60405180910390f35b6102c960048036038101906102c49190611763565b610fc3565b6040516102d691906116a4565b60405180910390f35b6102e7610fe3565b6040516102f491906116a4565b60405180910390f35b610305610ff6565b60405161031291906117b1565b60405180910390f35b61032361101a565b604051610330919061166e565b60405180910390f35b61034161103e565b005b61034b61119e565b604051610358919061166e565b60405180910390f35b61037b60048036038101906103769190611763565b6111a4565b005b7f000000000000000000000000000000000000000000000000000000000000000073ffffffffffffffffffffffffffffffffffffffff163373ffffffffffffffffffffffffffffffffffffffff161461040b576040517f08c379a000000000000000000000000000000000000000000000000000000000815260040161040290611818565b60405180910390fd5b600060065414610450576040517f08c379a000000000000000000000000000000000000000000000000000000000815260040161044790611884565b60405180910390fd5b8060068190555050565b60007f000000000000000000000000000000000000000000000000000000000000000073ffffffffffffffffffffffffffffffffffffffff166392254a62336040518263ffffffff1660e01b81526004016104b591906116e0565b602060405180830381865afa1580156104d2573d6000803e3d6000fd5b505050506040513d601f19601f820116820180604052508101906104f691906118b9565b90506004600082815260200190815260200160002060009054906101000a900460ff161580156105705750600560003373ffffffffffffffffffffffffffffffffffffffff1673ffffffffffffffffffffffffffffffffffffffff16815260200190815260200160002060009054906101000a900460ff16155b6105af576040517f08c379a00000000000000000000000000000000000000000000000000000000081526004016105a690611932565b60405180910390fd5b60016004600083815260200190815260200160002060006101000a81548160ff0219169083151502179055506001600560003373ffffffffffffffffffffffffffffffffffffffff1673ffffffffffffffffffffffffffffffffffffffff16815260200190815260200160002060006101000a81548160ff0219169083151502179055507f000000000000000000000000000000000000000000000000000000000000000073ffffffffffffffffffffffffffffffffffffffff1663ce4d01a3826040518263ffffffff1660e01b815260040161068c919061166e565b6020604051808303816000875af11580156106ab573d6000803e3d6000fd5b505050506040513d601f19601f820116820180604052508101906106cf919061197e565b61070e576040517f08c379a0000000000000000000000000000000000000000000000000000000008152600401610705906119f7565b60405180910390fd5b6002819080600181540180825580915050600190039060005260206000200160009091909190915055336003600083815260200190815260200160002060006101000a81548173ffffffffffffffffffffffffffffffffffffffff021916908373ffffffffffffffffffffffffffffffffffffffff16021790555050565b7f000000000000000000000000000000000000000000000000000000000000000081565b600760009054906101000a900460ff1615610800576040517f08c379a00000000000000000000000000000000000000000000000000000000081526004016107f790611a63565b60405180910390fd5b60007f000000000000000000000000000000000000000000000000000000000000000073ffffffffffffffffffffffffffffffffffffffff1663f08f4f647f00000000000000000000000000000000000000000000000000000000000000006040518263ffffffff1660e01b815260040161087b919061166e565b600060405180830381865afa158015610898573d6000803e3d6000fd5b505050506040513d6000823e3d601f19601f820116820180604052508101906108c19190611cbc565b905060008160400151905060008173ffffffffffffffffffffffffffffffffffffffff166318160ddd6040518163ffffffff1660e01b8152600401602060405180830381865afa158015610919573d6000803e3d6000fd5b505050506040513d601f19601f8201168201806040525081019061093d91906118b9565b90507f00000000000000000000000000000000000000000000000000000000000000008110156109a2576040517f08c379a000000000000000000000000000000000000000000000000000000000815260040161099990611d51565b60405180910390fd5b60007f000000000000000000000000000000000000000000000000000000000000000067ffffffffffffffff8111156109de576109dd611a88565b5b604051908082528060200260200182016040528015610a0c5781602001602082028036833780820191505090505b5090506000806002805480602002602001604051908101604052809291908181526020018280548015610a5e57602002820191906000526020600020905b815481526020019060010190808311610a4a575b5050505050905060008073ffffffffffffffffffffffffffffffffffffffff167f000000000000000000000000000000000000000000000000000000000000000073ffffffffffffffffffffffffffffffffffffffff161415905060005b7f0000000000000000000000000000000000000000000000000000000000000000811015610d65576000817f0000000000000000000000000000000000000000000000000000000000000000610b129190611da0565b610b1a61129c565b610b249190611e03565b9050600060028281548110610b3c57610b3b611e34565b5b9060005260206000200154905080878780610b5690611e63565b985081518110610b6957610b68611e34565b5b602002602001018181525050807fd077b95179d4ec05dad2d0b0c388ae0571bc74266bbadf496608af15775e824160405160405180910390a28315610cdd5760006003600083815260200190815260200160002060009054906101000a900473ffffffffffffffffffffffffffffffffffffffff169050600073ffffffffffffffffffffffffffffffffffffffff168173ffffffffffffffffffffffffffffffffffffffff161415610c50576040517f08c379a0000000000000000000000000000000000000000000000000000000008152600401610c4790611ef8565b60405180910390fd5b7f000000000000000000000000000000000000000000000000000000000000000073ffffffffffffffffffffffffffffffffffffffff1663fbdd25e4826040518263ffffffff1660e01b8152600401610ca991906116e0565b600060405180830381600087803b158015610cc357600080fd5b505af1158015610cd7573d6000803e3d6000fd5b50505050505b8460018651610cec9190611da0565b81518110610cfd57610cfc611e34565b5b6020026020010151858381518110610d1857610d17611e34565b5b6020026020010181815250508460018651610d339190611da0565b81518110610d4457610d43611e34565b5b60200260200101600081525050508080610d5d90611e63565b915050610abc565b508160029080519060200190610d7c9291906113ed565b506001600760006101000a81548160ff02191690831515021790555050505050505050565b60018054610dae90611f47565b80601f0160208091040260200160405190810160405280929190818152602001828054610dda90611f47565b8015610e275780601f10610dfc57610100808354040283529160200191610e27565b820191906000526020600020905b815481529060010190602001808311610e0a57829003601f168201915b505050505081565b7f000000000000000000000000000000000000000000000000000000000000000081565b60028181548110610e6357600080fd5b906000526020600020016000915090505481565b60046020528060005260406000206000915054906101000a900460ff1681565b7f000000000000000000000000000000000000000000000000000000000000000081565b610ec3611321565b73ffffffffffffffffffffffffffffffffffffffff16610ee1610f43565b73ffffffffffffffffffffffffffffffffffffffff1614610f37576040517f08c379a0000000000000000000000000000000000000000000000000000000008152600401610f2e90611fc5565b60405180910390fd5b610f416000611329565b565b60008060009054906101000a900473ffffffffffffffffffffffffffffffffffffffff16905090565b7f000000000000000000000000000000000000000000000000000000000000000081565b60036020528060005260406000206000915054906101000a900473ffffffffffffffffffffffffffffffffffffffff1681565b60056020528060005260406000206000915054906101000a900460ff1681565b600760009054906101000a900460ff1681565b7f000000000000000000000000000000000000000000000000000000000000000081565b7f000000000000000000000000000000000000000000000000000000000000000081565b611046611321565b73ffffffffffffffffffffffffffffffffffffffff16611064610f43565b73ffffffffffffffffffffffffffffffffffffffff16146110ba576040517f08c379a00000000000000000000000000000000000000000000000000000000081526004016110b190611fc5565b60405180910390fd5b6000600654146110ff576040517f08c379a00000000000000000000000000000000000000000000000000000000081526004016110f690611884565b60405180910390fd5b7f000000000000000000000000000000000000000000000000000000000000000073ffffffffffffffffffffffffffffffffffffffff16633b6dde13306040518263ffffffff1660e01b815260040161115891906116e0565b6020604051808303816000875af1158015611177573d6000803e3d6000fd5b505050506040513d601f19601f8201168201806040525081019061119b919061201b565b50565b60065481565b6111ac611321565b73ffffffffffffffffffffffffffffffffffffffff166111ca610f43565b73ffffffffffffffffffffffffffffffffffffffff1614611220576040517f08c379a000000000000000000000000000000000000000000000000000000000815260040161121790611fc5565b60405180910390fd5b600073ffffffffffffffffffffffffffffffffffffffff168173ffffffffffffffffffffffffffffffffffffffff161415611290576040517f08c379a0000000000000000000000000000000000000000000000000000000008152600401611287906120ba565b60405180910390fd5b61129981611329565b50565b600080600654905060008114156112e8576040517f08c379a00000000000000000000000000000000000000000000000000000000081526004016112df90612126565b60405180910390fd5b80915080446040516020016112fe929190612146565b6040516020818303038152906040528051906020012060001c6006819055505090565b600033905090565b60008060009054906101000a900473ffffffffffffffffffffffffffffffffffffffff169050816000806101000a81548173ffffffffffffffffffffffffffffffffffffffff021916908373ffffffffffffffffffffffffffffffffffffffff1602179055508173ffffffffffffffffffffffffffffffffffffffff168173ffffffffffffffffffffffffffffffffffffffff167f8be0079c531659141344cd1fd0a4f28419497f9722a3daafe3b4186f6b6457e060405160405180910390a35050565b828054828255906000526020600020908101928215611429579160200282015b8281111561142857825182559160200191906001019061140d565b5b509050611436919061143a565b5090565b5b8082111561145357600081600090555060010161143b565b5090565b6000604051905090565b600080fd5b600080fd5b6000819050919050565b61147e8161146b565b811461148957600080fd5b50565b60008135905061149b81611475565b92915050565b6000602082840312156114b7576114b6611461565b5b60006114c58482850161148c565b91505092915050565b600073ffffffffffffffffffffffffffffffffffffffff82169050919050565b6000819050919050565b600061151361150e611509846114ce565b6114ee565b6114ce565b9050919050565b6000611525826114f8565b9050919050565b60006115378261151a565b9050919050565b6115478161152c565b82525050565b6000602082019050611562600083018461153e565b92915050565b600081519050919050565b600082825260208201905092915050565b60005b838110156115a2578082015181840152602081019050611587565b838111156115b1576000848401525b50505050565b6000601f19601f8301169050919050565b60006115d382611568565b6115dd8185611573565b93506115ed818560208601611584565b6115f6816115b7565b840191505092915050565b6000602082019050818103600083015261161b81846115c8565b905092915050565b600061162e8261151a565b9050919050565b61163e81611623565b82525050565b60006020820190506116596000830184611635565b92915050565b6116688161146b565b82525050565b6000602082019050611683600083018461165f565b92915050565b60008115159050919050565b61169e81611689565b82525050565b60006020820190506116b96000830184611695565b92915050565b60006116ca826114ce565b9050919050565b6116da816116bf565b82525050565b60006020820190506116f560008301846116d1565b92915050565b60006117068261151a565b9050919050565b611716816116fb565b82525050565b6000602082019050611731600083018461170d565b92915050565b611740816116bf565b811461174b57600080fd5b50565b60008135905061175d81611737565b92915050565b60006020828403121561177957611778611461565b5b60006117878482850161174e565b91505092915050565b600061179b8261151a565b9050919050565b6117ab81611790565b82525050565b60006020820190506117c660008301846117a2565b92915050565b7f4f6e6c792072616e646f6d69736572206d61792063616c6c0000000000000000600082015250565b6000611802601883611573565b915061180d826117cc565b602082019050919050565b60006020820190508181036000830152611831816117f5565b9050919050565b7f52616e646f6d6e6573732068617320616c7265616479206265656e2073657400600082015250565b600061186e601f83611573565b915061187982611838565b602082019050919050565b6000602082019050818103600083015261189d81611861565b9050919050565b6000815190506118b381611475565b92915050565b6000602082840312156118cf576118ce611461565b5b60006118dd848285016118a4565b91505092915050565b7f416c7265616479207265676973746572656420666f7220726166666c65000000600082015250565b600061191c601d83611573565b9150611927826118e6565b602082019050919050565b6000602082019050818103600083015261194b8161190f565b9050919050565b61195b81611689565b811461196657600080fd5b50565b60008151905061197881611952565b92915050565b60006020828403121561199457611993611461565b5b60006119a284828501611969565b91505092915050565b7f50726f66696c652076616c69646174696f6e206661696c656400000000000000600082015250565b60006119e1601983611573565b91506119ec826119ab565b602082019050919050565b60006020820190508181036000830152611a10816119d4565b9050919050565b7f526166666c6520616c72656164792066696e6973686564000000000000000000600082015250565b6000611a4d601783611573565b9150611a5882611a17565b602082019050919050565b60006020820190508181036000830152611a7c81611a40565b9050919050565b600080fd5b7f4e487b7100000000000000000000000000000000000000000000000000000000600052604160045260246000fd5b611ac0826115b7565b810181811067ffffffffffffffff82111715611adf57611ade611a88565b5b80604052505050565b6000611af2611457565b9050611afe8282611ab7565b919050565b600080fd5b600081519050611b1781611737565b92915050565b600080fd5b600080fd5b600067ffffffffffffffff821115611b4257611b41611a88565b5b611b4b826115b7565b9050602081019050919050565b6000611b6b611b6684611b27565b611ae8565b905082815260208101848484011115611b8757611b86611b22565b5b611b92848285611584565b509392505050565b600082601f830112611baf57611bae611b1d565b5b8151611bbf848260208601611b58565b91505092915050565b600060c08284031215611bde57611bdd611a83565b5b611be860c0611ae8565b90506000611bf8848285016118a4565b6000830152506020611c0c84828501611b08565b6020830152506040611c2084828501611b08565b604083015250606082015167ffffffffffffffff811115611c4457611c43611b03565b5b611c5084828501611b9a565b606083015250608082015167ffffffffffffffff811115611c7457611c73611b03565b5b611c8084828501611b9a565b60808301525060a082015167ffffffffffffffff811115611ca457611ca3611b03565b5b611cb084828501611b9a565b60a08301525092915050565b600060208284031215611cd257611cd1611461565b5b600082015167ffffffffffffffff811115611cf057611cef611466565b5b611cfc84828501611bc8565b91505092915050565b7f4e6f7420656e6f75676820737570706c7920666f7220726166666c6500000000600082015250565b6000611d3b601c83611573565b9150611d4682611d05565b602082019050919050565b60006020820190508181036000830152611d6a81611d2e565b9050919050565b7f4e487b7100000000000000000000000000000000000000000000000000000000600052601160045260246000fd5b6000611dab8261146b565b9150611db68361146b565b925082821015611dc957611dc8611d71565b5b828203905092915050565b7f4e487b7100000000000000000000000000000000000000000000000000000000600052601260045260246000fd5b6000611e0e8261146b565b9150611e198361146b565b925082611e2957611e28611dd4565b5b828206905092915050565b7f4e487b7100000000000000000000000000000000000000000000000000000000600052603260045260246000fd5b6000611e6e8261146b565b91507fffffffffffffffffffffffffffffffffffffffffffffffffffffffffffffffff821415611ea157611ea0611d71565b5b600182019050919050565b7f4d696e7420746f207a65726f2061646472657373000000000000000000000000600082015250565b6000611ee2601483611573565b9150611eed82611eac565b602082019050919050565b60006020820190508181036000830152611f1181611ed5565b9050919050565b7f4e487b7100000000000000000000000000000000000000000000000000000000600052602260045260246000fd5b60006002820490506001821680611f5f57607f821691505b60208210811415611f7357611f72611f18565b5b50919050565b7f4f776e61626c653a2063616c6c6572206973206e6f7420746865206f776e6572600082015250565b6000611faf602083611573565b9150611fba82611f79565b602082019050919050565b60006020820190508181036000830152611fde81611fa2565b9050919050565b6000819050919050565b611ff881611fe5565b811461200357600080fd5b50565b60008151905061201581611fef565b92915050565b60006020828403121561203157612030611461565b5b600061203f84828501612006565b91505092915050565b7f4f776e61626c653a206e6577206f776e657220697320746865207a65726f206160008201527f6464726573730000000000000000000000000000000000000000000000000000602082015250565b60006120a4602683611573565b91506120af82612048565b604082019050919050565b600060208201905081810360008301526120d381612097565b9050919050565b7f496e697469616c6973652072616e646f6d207365656420666972737400000000600082015250565b6000612110601c83611573565b915061211b826120da565b602082019050919050565b6000602082019050818103600083015261213f81612103565b9050919050565b600060408201905061215b600083018561165f565b612168602083018461165f565b939250505056fea2646970667358221220cce14f032280c5153c036ddbcdb4b2dfef7301cdf4d2574c281fc31a4959590264736f6c634300080a0033a26469706673582212208b2e80f4cc6af8a76c0feffa67882a1a694b945278711e19f0770a2161eb335864736f6c634300080a0033",
  "linkReferences": {},
  "deployedLinkReferences": {}
}